{
  "contractName": "CryptoLands",
  "abi": [
    {
      "inputs": [],
      "stateMutability": "nonpayable",
      "type": "constructor"
    },
    {
      "inputs": [
        {
          "internalType": "address",
          "name": "sender",
          "type": "address"
        },
        {
          "internalType": "uint256",
          "name": "tokenId",
          "type": "uint256"
        },
        {
          "internalType": "address",
          "name": "owner",
          "type": "address"
        }
      ],
      "name": "ERC721IncorrectOwner",
      "type": "error"
    },
    {
      "inputs": [
        {
          "internalType": "address",
          "name": "operator",
          "type": "address"
        },
        {
          "internalType": "uint256",
          "name": "tokenId",
          "type": "uint256"
        }
      ],
      "name": "ERC721InsufficientApproval",
      "type": "error"
    },
    {
      "inputs": [
        {
          "internalType": "address",
          "name": "approver",
          "type": "address"
        }
      ],
      "name": "ERC721InvalidApprover",
      "type": "error"
    },
    {
      "inputs": [
        {
          "internalType": "address",
          "name": "operator",
          "type": "address"
        }
      ],
      "name": "ERC721InvalidOperator",
      "type": "error"
    },
    {
      "inputs": [
        {
          "internalType": "address",
          "name": "owner",
          "type": "address"
        }
      ],
      "name": "ERC721InvalidOwner",
      "type": "error"
    },
    {
      "inputs": [
        {
          "internalType": "address",
          "name": "receiver",
          "type": "address"
        }
      ],
      "name": "ERC721InvalidReceiver",
      "type": "error"
    },
    {
      "inputs": [
        {
          "internalType": "address",
          "name": "sender",
          "type": "address"
        }
      ],
      "name": "ERC721InvalidSender",
      "type": "error"
    },
    {
      "inputs": [
        {
          "internalType": "uint256",
          "name": "tokenId",
          "type": "uint256"
        }
      ],
      "name": "ERC721NonexistentToken",
      "type": "error"
    },
    {
      "inputs": [
        {
          "internalType": "address",
          "name": "owner",
          "type": "address"
        }
      ],
      "name": "OwnableInvalidOwner",
      "type": "error"
    },
    {
      "inputs": [
        {
          "internalType": "address",
          "name": "account",
          "type": "address"
        }
      ],
      "name": "OwnableUnauthorizedAccount",
      "type": "error"
    },
    {
      "anonymous": false,
      "inputs": [
        {
          "indexed": true,
          "internalType": "address",
          "name": "owner",
          "type": "address"
        },
        {
          "indexed": true,
          "internalType": "address",
          "name": "approved",
          "type": "address"
        },
        {
          "indexed": true,
          "internalType": "uint256",
          "name": "tokenId",
          "type": "uint256"
        }
      ],
      "name": "Approval",
      "type": "event"
    },
    {
      "anonymous": false,
      "inputs": [
        {
          "indexed": true,
          "internalType": "address",
          "name": "owner",
          "type": "address"
        },
        {
          "indexed": true,
          "internalType": "address",
          "name": "operator",
          "type": "address"
        },
        {
          "indexed": false,
          "internalType": "bool",
          "name": "approved",
          "type": "bool"
        }
      ],
      "name": "ApprovalForAll",
      "type": "event"
    },
    {
      "anonymous": false,
      "inputs": [
        {
          "indexed": false,
          "internalType": "uint256",
          "name": "_fromTokenId",
          "type": "uint256"
        },
        {
          "indexed": false,
          "internalType": "uint256",
          "name": "_toTokenId",
          "type": "uint256"
        }
      ],
      "name": "BatchMetadataUpdate",
      "type": "event"
    },
    {
      "anonymous": false,
      "inputs": [
        {
          "indexed": false,
          "internalType": "uint256",
          "name": "_tokenId",
          "type": "uint256"
        }
      ],
      "name": "MetadataUpdate",
      "type": "event"
    },
    {
      "anonymous": false,
      "inputs": [
        {
          "indexed": true,
          "internalType": "address",
          "name": "previousOwner",
          "type": "address"
        },
        {
          "indexed": true,
          "internalType": "address",
          "name": "newOwner",
          "type": "address"
        }
      ],
      "name": "OwnershipTransferred",
      "type": "event"
    },
    {
      "anonymous": false,
      "inputs": [
        {
          "indexed": true,
          "internalType": "uint256",
          "name": "tokenId",
          "type": "uint256"
        }
      ],
      "name": "PropertyApproved",
      "type": "event"
    },
    {
      "anonymous": false,
      "inputs": [
        {
          "indexed": true,
          "internalType": "uint256",
          "name": "tokenId",
          "type": "uint256"
        },
        {
          "indexed": true,
          "internalType": "address",
          "name": "owner",
          "type": "address"
        }
      ],
      "name": "PropertyRegistered",
      "type": "event"
    },
    {
      "anonymous": false,
      "inputs": [
        {
          "indexed": true,
          "internalType": "uint256",
          "name": "tokenId",
          "type": "uint256"
        },
        {
          "indexed": false,
          "internalType": "string",
          "name": "message",
          "type": "string"
        }
      ],
      "name": "PropertyRejected",
      "type": "event"
    },
    {
      "anonymous": false,
      "inputs": [
        {
          "indexed": true,
          "internalType": "uint256",
          "name": "tokenId",
          "type": "uint256"
        },
        {
          "indexed": true,
          "internalType": "address",
          "name": "newOwner",
          "type": "address"
        }
      ],
      "name": "PropertySold",
      "type": "event"
    },
    {
      "anonymous": false,
      "inputs": [
        {
          "indexed": true,
          "internalType": "address",
          "name": "from",
          "type": "address"
        },
        {
          "indexed": true,
          "internalType": "address",
          "name": "to",
          "type": "address"
        },
        {
          "indexed": true,
          "internalType": "uint256",
          "name": "tokenId",
          "type": "uint256"
        }
      ],
      "name": "Transfer",
      "type": "event"
    },
    {
      "inputs": [
        {
          "internalType": "uint256",
          "name": "",
          "type": "uint256"
        }
      ],
      "name": "PropertyStatus_available",
      "outputs": [
        {
          "internalType": "bool",
          "name": "",
          "type": "bool"
        }
      ],
      "stateMutability": "view",
      "type": "function",
      "constant": true
    },
    {
      "inputs": [
        {
          "internalType": "uint256",
          "name": "",
          "type": "uint256"
        }
      ],
      "name": "RegIDtoTokenID",
      "outputs": [
        {
          "internalType": "uint256",
          "name": "",
          "type": "uint256"
        }
      ],
      "stateMutability": "view",
      "type": "function",
      "constant": true
    },
    {
      "inputs": [
        {
          "internalType": "uint256",
          "name": "",
          "type": "uint256"
        }
      ],
      "name": "TokenizedProperties",
      "outputs": [
        {
          "internalType": "address",
          "name": "owner",
          "type": "address"
        },
        {
          "internalType": "uint256",
          "name": "Price",
          "type": "uint256"
        },
        {
          "internalType": "string",
          "name": "detailsCID",
          "type": "string"
        },
        {
          "internalType": "bool",
          "name": "verified",
          "type": "bool"
        },
        {
          "internalType": "bool",
          "name": "saleStatus",
          "type": "bool"
        },
        {
          "internalType": "uint256",
          "name": "tokenID",
          "type": "uint256"
        },
        {
          "internalType": "string",
          "name": "ownerName",
          "type": "string"
        },
        {
          "internalType": "string",
          "name": "ownerCnic",
          "type": "string"
        }
      ],
      "stateMutability": "view",
      "type": "function",
      "constant": true
    },
    {
      "inputs": [
        {
          "internalType": "address",
          "name": "to",
          "type": "address"
        },
        {
          "internalType": "uint256",
          "name": "tokenId",
          "type": "uint256"
        }
      ],
      "name": "approve",
      "outputs": [],
      "stateMutability": "nonpayable",
      "type": "function"
    },
    {
      "inputs": [
        {
          "internalType": "address",
          "name": "owner",
          "type": "address"
        }
      ],
      "name": "balanceOf",
      "outputs": [
        {
          "internalType": "uint256",
          "name": "",
          "type": "uint256"
        }
      ],
      "stateMutability": "view",
      "type": "function",
      "constant": true
    },
    {
      "inputs": [
        {
          "internalType": "uint256",
          "name": "tokenId",
          "type": "uint256"
        }
      ],
      "name": "getApproved",
      "outputs": [
        {
          "internalType": "address",
          "name": "",
          "type": "address"
        }
      ],
      "stateMutability": "view",
      "type": "function",
      "constant": true
    },
    {
      "inputs": [
        {
          "internalType": "address",
          "name": "owner",
          "type": "address"
        },
        {
          "internalType": "address",
          "name": "operator",
          "type": "address"
        }
      ],
      "name": "isApprovedForAll",
      "outputs": [
        {
          "internalType": "bool",
          "name": "",
          "type": "bool"
        }
      ],
      "stateMutability": "view",
      "type": "function",
      "constant": true
    },
    {
      "inputs": [],
      "name": "name",
      "outputs": [
        {
          "internalType": "string",
          "name": "",
          "type": "string"
        }
      ],
      "stateMutability": "view",
      "type": "function",
      "constant": true
    },
    {
      "inputs": [],
      "name": "owner",
      "outputs": [
        {
          "internalType": "address",
          "name": "",
          "type": "address"
        }
      ],
      "stateMutability": "view",
      "type": "function",
      "constant": true
    },
    {
      "inputs": [
        {
          "internalType": "uint256",
          "name": "tokenId",
          "type": "uint256"
        }
      ],
      "name": "ownerOf",
      "outputs": [
        {
          "internalType": "address",
          "name": "",
          "type": "address"
        }
      ],
      "stateMutability": "view",
      "type": "function",
      "constant": true
    },
    {
      "inputs": [
        {
          "internalType": "uint256",
          "name": "",
          "type": "uint256"
        }
      ],
      "name": "properties",
      "outputs": [
        {
          "internalType": "address",
          "name": "owner",
          "type": "address"
        },
        {
          "internalType": "uint256",
          "name": "Price",
          "type": "uint256"
        },
        {
          "internalType": "string",
          "name": "detailsCID",
          "type": "string"
        },
        {
          "internalType": "bool",
          "name": "verified",
          "type": "bool"
        },
        {
          "internalType": "bool",
          "name": "saleStatus",
          "type": "bool"
        },
        {
          "internalType": "uint256",
          "name": "tokenID",
          "type": "uint256"
        },
        {
          "internalType": "string",
          "name": "ownerName",
          "type": "string"
        },
        {
          "internalType": "string",
          "name": "ownerCnic",
          "type": "string"
        }
      ],
      "stateMutability": "view",
      "type": "function",
      "constant": true
    },
    {
      "inputs": [],
      "name": "renounceOwnership",
      "outputs": [],
      "stateMutability": "nonpayable",
      "type": "function"
    },
    {
      "inputs": [
        {
          "internalType": "address",
          "name": "from",
          "type": "address"
        },
        {
          "internalType": "address",
          "name": "to",
          "type": "address"
        },
        {
          "internalType": "uint256",
          "name": "tokenId",
          "type": "uint256"
        }
      ],
      "name": "safeTransferFrom",
      "outputs": [],
      "stateMutability": "nonpayable",
      "type": "function"
    },
    {
      "inputs": [
        {
          "internalType": "address",
          "name": "from",
          "type": "address"
        },
        {
          "internalType": "address",
          "name": "to",
          "type": "address"
        },
        {
          "internalType": "uint256",
          "name": "tokenId",
          "type": "uint256"
        },
        {
          "internalType": "bytes",
          "name": "data",
          "type": "bytes"
        }
      ],
      "name": "safeTransferFrom",
      "outputs": [],
      "stateMutability": "nonpayable",
      "type": "function"
    },
    {
      "inputs": [
        {
          "internalType": "address",
          "name": "operator",
          "type": "address"
        },
        {
          "internalType": "bool",
          "name": "approved",
          "type": "bool"
        }
      ],
      "name": "setApprovalForAll",
      "outputs": [],
      "stateMutability": "nonpayable",
      "type": "function"
    },
    {
      "inputs": [],
      "name": "symbol",
      "outputs": [
        {
          "internalType": "string",
          "name": "",
          "type": "string"
        }
      ],
      "stateMutability": "view",
      "type": "function",
      "constant": true
    },
    {
      "inputs": [
        {
          "internalType": "address",
          "name": "from",
          "type": "address"
        },
        {
          "internalType": "address",
          "name": "to",
          "type": "address"
        },
        {
          "internalType": "uint256",
          "name": "tokenId",
          "type": "uint256"
        }
      ],
      "name": "transferFrom",
      "outputs": [],
      "stateMutability": "nonpayable",
      "type": "function"
    },
    {
      "inputs": [
        {
          "internalType": "address",
          "name": "newOwner",
          "type": "address"
        }
      ],
      "name": "transferOwnership",
      "outputs": [],
      "stateMutability": "nonpayable",
      "type": "function"
    },
    {
      "inputs": [
        {
          "internalType": "uint256",
          "name": "tokenId",
          "type": "uint256"
        }
      ],
      "name": "tokenURI",
      "outputs": [
        {
          "internalType": "string",
          "name": "",
          "type": "string"
        }
      ],
      "stateMutability": "view",
      "type": "function",
      "constant": true
    },
    {
      "inputs": [
        {
          "internalType": "bytes4",
          "name": "interfaceId",
          "type": "bytes4"
        }
      ],
      "name": "supportsInterface",
      "outputs": [
        {
          "internalType": "bool",
          "name": "",
          "type": "bool"
        }
      ],
      "stateMutability": "view",
      "type": "function",
      "constant": true
    },
    {
      "inputs": [
        {
          "internalType": "string",
          "name": "propertyURI",
          "type": "string"
        },
        {
          "internalType": "uint256",
          "name": "_price",
          "type": "uint256"
        },
        {
          "internalType": "string",
          "name": "_name",
          "type": "string"
        },
        {
          "internalType": "string",
          "name": "_cnic",
          "type": "string"
        }
      ],
      "name": "registerProperty",
      "outputs": [
        {
          "internalType": "uint256",
          "name": "",
          "type": "uint256"
        }
      ],
      "stateMutability": "nonpayable",
      "type": "function"
    },
    {
      "inputs": [
        {
          "internalType": "uint256",
          "name": "tokenId",
          "type": "uint256"
        }
      ],
      "name": "sell",
      "outputs": [],
      "stateMutability": "nonpayable",
      "type": "function"
    },
    {
      "inputs": [
        {
          "internalType": "uint256",
          "name": "tokenId",
          "type": "uint256"
        },
        {
          "internalType": "string",
          "name": "_buyername",
          "type": "string"
        },
        {
          "internalType": "string",
          "name": "_buyercnic",
          "type": "string"
        }
      ],
      "name": "_BuyProperty",
      "outputs": [],
      "stateMutability": "payable",
      "type": "function",
      "payable": true
    },
    {
      "inputs": [
        {
          "internalType": "uint256",
          "name": "Reg_ID",
          "type": "uint256"
        }
      ],
      "name": "approveProperty",
      "outputs": [],
      "stateMutability": "nonpayable",
      "type": "function"
    },
    {
      "inputs": [
        {
          "internalType": "uint256",
          "name": "Reg_ID",
          "type": "uint256"
        }
      ],
      "name": "RejectProperty",
      "outputs": [],
      "stateMutability": "nonpayable",
      "type": "function"
    },
    {
      "inputs": [],
      "name": "getAllProperties",
      "outputs": [
        {
          "components": [
            {
              "internalType": "address",
              "name": "owner",
              "type": "address"
            },
            {
              "internalType": "uint256",
              "name": "Price",
              "type": "uint256"
            },
            {
              "internalType": "string",
              "name": "detailsCID",
              "type": "string"
            },
            {
              "internalType": "bool",
              "name": "verified",
              "type": "bool"
            },
            {
              "internalType": "bool",
              "name": "saleStatus",
              "type": "bool"
            },
            {
              "internalType": "uint256",
              "name": "tokenID",
              "type": "uint256"
            },
            {
              "internalType": "string",
              "name": "ownerName",
              "type": "string"
            },
            {
              "internalType": "string",
              "name": "ownerCnic",
              "type": "string"
            }
          ],
          "internalType": "struct CryptoLands.Property[]",
          "name": "",
          "type": "tuple[]"
        }
      ],
      "stateMutability": "view",
      "type": "function",
      "constant": true
    },
    {
      "inputs": [],
      "name": "getTokenizedProperties",
      "outputs": [
        {
          "components": [
            {
              "internalType": "address",
              "name": "owner",
              "type": "address"
            },
            {
              "internalType": "uint256",
              "name": "Price",
              "type": "uint256"
            },
            {
              "internalType": "string",
              "name": "detailsCID",
              "type": "string"
            },
            {
              "internalType": "bool",
              "name": "verified",
              "type": "bool"
            },
            {
              "internalType": "bool",
              "name": "saleStatus",
              "type": "bool"
            },
            {
              "internalType": "uint256",
              "name": "tokenID",
              "type": "uint256"
            },
            {
              "internalType": "string",
              "name": "ownerName",
              "type": "string"
            },
            {
              "internalType": "string",
              "name": "ownerCnic",
              "type": "string"
            }
          ],
          "internalType": "struct CryptoLands.TokenizedProperty[]",
          "name": "",
          "type": "tuple[]"
        }
      ],
      "stateMutability": "view",
      "type": "function",
      "constant": true
    },
    {
      "inputs": [
        {
          "internalType": "uint256",
          "name": "tokenId",
          "type": "uint256"
        },
        {
          "internalType": "string",
          "name": "UpdatedCid",
          "type": "string"
        }
      ],
      "name": "updatePropertyDetails",
      "outputs": [],
      "stateMutability": "nonpayable",
      "type": "function"
    },
    {
      "inputs": [
        {
          "internalType": "address",
          "name": "owner",
          "type": "address"
        }
      ],
      "name": "OwnedProperties",
      "outputs": [
        {
          "components": [
            {
              "internalType": "address",
              "name": "owner",
              "type": "address"
            },
            {
              "internalType": "uint256",
              "name": "Price",
              "type": "uint256"
            },
            {
              "internalType": "string",
              "name": "detailsCID",
              "type": "string"
            },
            {
              "internalType": "bool",
              "name": "verified",
              "type": "bool"
            },
            {
              "internalType": "bool",
              "name": "saleStatus",
              "type": "bool"
            },
            {
              "internalType": "uint256",
              "name": "tokenID",
              "type": "uint256"
            },
            {
              "internalType": "string",
              "name": "ownerName",
              "type": "string"
            },
            {
              "internalType": "string",
              "name": "ownerCnic",
              "type": "string"
            }
          ],
          "internalType": "struct CryptoLands.TokenizedProperty[]",
          "name": "",
          "type": "tuple[]"
        }
      ],
      "stateMutability": "view",
      "type": "function",
      "constant": true
    }
  ],
  "bytecode": "0x608060405234801561000f575f80fd5b50336040518060400160405280600b81526020017f43727970746f4c616e64730000000000000000000000000000000000000000008152506040518060400160405280600381526020017f4359440000000000000000000000000000000000000000000000000000000000815250815f908161008b9190610420565b50806001908161009b9190610420565b5050505f73ffffffffffffffffffffffffffffffffffffffff168173ffffffffffffffffffffffffffffffffffffffff160361010e575f6040517f1e4fbdf7000000000000000000000000000000000000000000000000000000008152600401610105919061052e565b60405180910390fd5b61011d8161012360201b60201c565b50610547565b5f60065f9054906101000a900473ffffffffffffffffffffffffffffffffffffffff1690508160065f6101000a81548173ffffffffffffffffffffffffffffffffffffffff021916908373ffffffffffffffffffffffffffffffffffffffff1602179055508173ffffffffffffffffffffffffffffffffffffffff168173ffffffffffffffffffffffffffffffffffffffff167f8be0079c531659141344cd1fd0a4f28419497f9722a3daafe3b4186f6b6457e060405160405180910390a35050565b5f81519050919050565b7f4e487b71000000000000000000000000000000000000000000000000000000005f52604160045260245ffd5b7f4e487b71000000000000000000000000000000000000000000000000000000005f52602260045260245ffd5b5f600282049050600182168061026157607f821691505b6020821081036102745761027361021d565b5b50919050565b5f819050815f5260205f209050919050565b5f6020601f8301049050919050565b5f82821b905092915050565b5f600883026102d67fffffffffffffffffffffffffffffffffffffffffffffffffffffffffffffffff8261029b565b6102e0868361029b565b95508019841693508086168417925050509392505050565b5f819050919050565b5f819050919050565b5f61032461031f61031a846102f8565b610301565b6102f8565b9050919050565b5f819050919050565b61033d8361030a565b6103516103498261032b565b8484546102a7565b825550505050565b5f90565b610365610359565b610370818484610334565b505050565b5b81811015610393576103885f8261035d565b600181019050610376565b5050565b601f8211156103d8576103a98161027a565b6103b28461028c565b810160208510156103c1578190505b6103d56103cd8561028c565b830182610375565b50505b505050565b5f82821c905092915050565b5f6103f85f19846008026103dd565b1980831691505092915050565b5f61041083836103e9565b9150826002028217905092915050565b610429826101e6565b67ffffffffffffffff811115610442576104416101f0565b5b61044c825461024a565b610457828285610397565b5f60209050601f831160018114610488575f8415610476578287015190505b6104808582610405565b8655506104e7565b601f1984166104968661027a565b5f5b828110156104bd57848901518255600182019150602085019450602081019050610498565b868310156104da57848901516104d6601f8916826103e9565b8355505b6001600288020188555050505b505050505050565b5f73ffffffffffffffffffffffffffffffffffffffff82169050919050565b5f610518826104ef565b9050919050565b6105288161050e565b82525050565b5f6020820190506105415f83018461051f565b92915050565b615d3c806105545f395ff3fe6080604052600436106101c1575f3560e01c806395d89b41116100f6578063c823d2ea11610094578063e985e9c511610063578063e985e9c514610668578063e9b66f8c146106a4578063f2fde38b146106cc578063f7b10808146106f4576101c1565b8063c823d2ea146105b2578063c87b56dd146105dc578063c8986e4014610618578063e4849b3214610640576101c1565b8063adad4b86116100d0578063adad4b86146104e3578063b88d4fde1461050b578063c1efac0714610533578063c3177bc71461056f576101c1565b806395d89b41146104755780639e07d1af1461049f578063a22cb465146104bb576101c1565b80633d51402c116101635780636352211e1161013d5780636352211e146103bd57806370a08231146103f9578063715018a6146104355780638da5cb5b1461044b576101c1565b80633d51402c1461032f57806342842e0e146103595780634be0373814610381576101c1565b8063095ea7b31161019f578063095ea7b3146102675780630bf2d6681461028f57806323b872dd146102cb5780633b64034b146102f3576101c1565b806301ffc9a7146101c557806306fdde0314610201578063081812fc1461022b575b5f80fd5b3480156101d0575f80fd5b506101eb60048036038101906101e69190614738565b610737565b6040516101f8919061477d565b60405180910390f35b34801561020c575f80fd5b50610215610748565b6040516102229190614806565b60405180910390f35b348015610236575f80fd5b50610251600480360381019061024c9190614859565b6107d7565b60405161025e91906148c3565b60405180910390f35b348015610272575f80fd5b5061028d60048036038101906102889190614906565b6107f2565b005b34801561029a575f80fd5b506102b560048036038101906102b09190614a70565b610808565b6040516102c29190614b37565b60405180910390f35b3480156102d6575f80fd5b506102f160048036038101906102ec9190614b50565b6109e5565b005b3480156102fe575f80fd5b5061031960048036038101906103149190614ba0565b610ae4565b6040516103269190614db6565b60405180910390f35b34801561033a575f80fd5b50610343610eee565b6040516103509190614f4c565b60405180910390f35b348015610364575f80fd5b5061037f600480360381019061037a9190614b50565b6111f2565b005b34801561038c575f80fd5b506103a760048036038101906103a29190614859565b611211565b6040516103b49190614b37565b60405180910390f35b3480156103c8575f80fd5b506103e360048036038101906103de9190614859565b611226565b6040516103f091906148c3565b60405180910390f35b348015610404575f80fd5b5061041f600480360381019061041a9190614ba0565b611237565b60405161042c9190614b37565b60405180910390f35b348015610440575f80fd5b506104496112ed565b005b348015610456575f80fd5b5061045f611300565b60405161046c91906148c3565b60405180910390f35b348015610480575f80fd5b50610489611328565b6040516104969190614806565b60405180910390f35b6104b960048036038101906104b49190614f6c565b6113b8565b005b3480156104c6575f80fd5b506104e160048036038101906104dc919061501e565b611865565b005b3480156104ee575f80fd5b506105096004803603810190610504919061505c565b61187b565b005b348015610516575f80fd5b50610531600480360381019061052c9190615154565b611ee8565b005b34801561053e575f80fd5b5061055960048036038101906105549190614859565b611f05565b604051610566919061477d565b60405180910390f35b34801561057a575f80fd5b5061059560048036038101906105909190614859565b611f22565b6040516105a99897969594939291906151d4565b60405180910390f35b3480156105bd575f80fd5b506105c6612130565b6040516105d39190614db6565b60405180910390f35b3480156105e7575f80fd5b5061060260048036038101906105fd9190614859565b612434565b60405161060f9190614806565b60405180910390f35b348015610623575f80fd5b5061063e60048036038101906106399190614859565b612446565b005b34801561064b575f80fd5b5061066660048036038101906106619190614859565b612670565b005b348015610673575f80fd5b5061068e60048036038101906106899190615265565b6127c9565b60405161069b919061477d565b60405180910390f35b3480156106af575f80fd5b506106ca60048036038101906106c59190614859565b612857565b005b3480156106d7575f80fd5b506106f260048036038101906106ed9190614ba0565b6131ae565b005b3480156106ff575f80fd5b5061071a60048036038101906107159190614859565b613232565b60405161072e9897969594939291906151d4565b60405180910390f35b5f61074182613440565b9050919050565b60605f8054610756906152d0565b80601f0160208091040260200160405190810160405280929190818152602001828054610782906152d0565b80156107cd5780601f106107a4576101008083540402835291602001916107cd565b820191905f5260205f20905b8154815290600101906020018083116107b057829003601f168201915b5050505050905090565b5f6107e1826134a0565b506107eb82613526565b9050919050565b61080482826107ff61355f565b613566565b5050565b5f803390505f805f600e5f8154809291906108229061532d565b9190505590506040518061010001604052808573ffffffffffffffffffffffffffffffffffffffff1681526020018981526020018a8152602001841515815260200183151581526020018281526020018881526020018781525060085f8381526020019081526020015f205f820151815f015f6101000a81548173ffffffffffffffffffffffffffffffffffffffff021916908373ffffffffffffffffffffffffffffffffffffffff1602179055506020820151816001015560408201518160020190816108f09190615511565b506060820151816003015f6101000a81548160ff02191690831515021790555060808201518160030160016101000a81548160ff02191690831515021790555060a0820151816004015560c082015181600501908161094f9190615511565b5060e08201518160060190816109659190615511565b509050506001600d5f8381526020019081526020015f205f6101000a81548160ff0219169083151502179055508373ffffffffffffffffffffffffffffffffffffffff16817ff16e2a0ca5373d3b3c5e53640bf2953ea25184f229ba20d421b5fc6a635e394560405160405180910390a380945050505050949350505050565b5f73ffffffffffffffffffffffffffffffffffffffff168273ffffffffffffffffffffffffffffffffffffffff1603610a55575f6040517f64a0ae92000000000000000000000000000000000000000000000000000000008152600401610a4c91906148c3565b60405180910390fd5b5f610a688383610a6361355f565b613578565b90508373ffffffffffffffffffffffffffffffffffffffff168173ffffffffffffffffffffffffffffffffffffffff1614610ade578382826040517f64283d7b000000000000000000000000000000000000000000000000000000008152600401610ad5939291906155e0565b60405180910390fd5b50505050565b60605f805b600e54811015610b74578373ffffffffffffffffffffffffffffffffffffffff1660095f8381526020019081526020015f205f015f9054906101000a900473ffffffffffffffffffffffffffffffffffffffff1673ffffffffffffffffffffffffffffffffffffffff1603610b67578180610b639061532d565b9250505b8080600101915050610ae9565b505f8167ffffffffffffffff811115610b9057610b8f61494c565b5b604051908082528060200260200182016040528015610bc957816020015b610bb661461e565b815260200190600190039081610bae5790505b5090505f805b600e54811015610ee2578573ffffffffffffffffffffffffffffffffffffffff1660095f8381526020019081526020015f205f015f9054906101000a900473ffffffffffffffffffffffffffffffffffffffff1673ffffffffffffffffffffffffffffffffffffffff1603610ed55760095f8281526020019081526020015f20604051806101000160405290815f82015f9054906101000a900473ffffffffffffffffffffffffffffffffffffffff1673ffffffffffffffffffffffffffffffffffffffff1673ffffffffffffffffffffffffffffffffffffffff16815260200160018201548152602001600282018054610cc9906152d0565b80601f0160208091040260200160405190810160405280929190818152602001828054610cf5906152d0565b8015610d405780601f10610d1757610100808354040283529160200191610d40565b820191905f5260205f20905b815481529060010190602001808311610d2357829003601f168201915b50505050508152602001600382015f9054906101000a900460ff161515151581526020016003820160019054906101000a900460ff1615151515815260200160048201548152602001600582018054610d98906152d0565b80601f0160208091040260200160405190810160405280929190818152602001828054610dc4906152d0565b8015610e0f5780601f10610de657610100808354040283529160200191610e0f565b820191905f5260205f20905b815481529060010190602001808311610df257829003601f168201915b50505050508152602001600682018054610e28906152d0565b80601f0160208091040260200160405190810160405280929190818152602001828054610e54906152d0565b8015610e9f5780601f10610e7657610100808354040283529160200191610e9f565b820191905f5260205f20905b815481529060010190602001808311610e8257829003601f168201915b505050505081525050838381518110610ebb57610eba615615565b5b60200260200101819052508180610ed19061532d565b9250505b8080600101915050610bcf565b50819350505050919050565b60605f600e5467ffffffffffffffff811115610f0d57610f0c61494c565b5b604051908082528060200260200182016040528015610f4657816020015b610f33614678565b815260200190600190039081610f2b5790505b5090505f5b600e548110156111ea5760085f8281526020019081526020015f20604051806101000160405290815f82015f9054906101000a900473ffffffffffffffffffffffffffffffffffffffff1673ffffffffffffffffffffffffffffffffffffffff1673ffffffffffffffffffffffffffffffffffffffff16815260200160018201548152602001600282018054610fe0906152d0565b80601f016020809104026020016040519081016040528092919081815260200182805461100c906152d0565b80156110575780601f1061102e57610100808354040283529160200191611057565b820191905f5260205f20905b81548152906001019060200180831161103a57829003601f168201915b50505050508152602001600382015f9054906101000a900460ff161515151581526020016003820160019054906101000a900460ff16151515158152602001600482015481526020016005820180546110af906152d0565b80601f01602080910402602001604051908101604052809291908181526020018280546110db906152d0565b80156111265780601f106110fd57610100808354040283529160200191611126565b820191905f5260205f20905b81548152906001019060200180831161110957829003601f168201915b5050505050815260200160068201805461113f906152d0565b80601f016020809104026020016040519081016040528092919081815260200182805461116b906152d0565b80156111b65780601f1061118d576101008083540402835291602001916111b6565b820191905f5260205f20905b81548152906001019060200180831161119957829003601f168201915b5050505050815250508282815181106111d2576111d1615615565b5b60200260200101819052508080600101915050610f4b565b508091505090565b61120c83838360405180602001604052805f815250611ee8565b505050565b600a602052805f5260405f205f915090505481565b5f611230826134a0565b9050919050565b5f8073ffffffffffffffffffffffffffffffffffffffff168273ffffffffffffffffffffffffffffffffffffffff16036112a8575f6040517f89c62b6400000000000000000000000000000000000000000000000000000000815260040161129f91906148c3565b60405180910390fd5b60035f8373ffffffffffffffffffffffffffffffffffffffff1673ffffffffffffffffffffffffffffffffffffffff1681526020019081526020015f20549050919050565b6112f5613783565b6112fe5f61380a565b565b5f60065f9054906101000a900473ffffffffffffffffffffffffffffffffffffffff16905090565b606060018054611337906152d0565b80601f0160208091040260200160405190810160405280929190818152602001828054611363906152d0565b80156113ae5780601f10611385576101008083540402835291602001916113ae565b820191905f5260205f20905b81548152906001019060200180831161139157829003601f168201915b5050505050905090565b5f3390505f6113c685611226565b90508173ffffffffffffffffffffffffffffffffffffffff166113e886611226565b73ffffffffffffffffffffffffffffffffffffffff160361143e576040517f08c379a00000000000000000000000000000000000000000000000000000000081526004016114359061568c565b60405180910390fd5b60011515600b5f8781526020019081526020015f205f9054906101000a900460ff161515146114a2576040517f08c379a00000000000000000000000000000000000000000000000000000000081526004016114999061571a565b60405180910390fd5b60011515600d5f8781526020019081526020015f205f9054906101000a900460ff16151514611506576040517f08c379a00000000000000000000000000000000000000000000000000000000081526004016114fd90615782565b60405180910390fd5b6001151560095f8781526020019081526020015f2060030160019054906101000a900460ff1615151461156e576040517f08c379a000000000000000000000000000000000000000000000000000000000815260040161156590615782565b60405180910390fd5b60085f8681526020019081526020015f20600101543410156115c5576040517f08c379a00000000000000000000000000000000000000000000000000000000081526004016115bc90615810565b60405180910390fd5b6115d0828683613566565b8073ffffffffffffffffffffffffffffffffffffffff166108fc3490811502906040515f60405180830381858888f19350505050158015611613573d5f803e3d5ffd5b5061161f8183876111f2565b61162a85835f6138cd565b6040518061010001604052808373ffffffffffffffffffffffffffffffffffffffff16815260200160095f8881526020019081526020015f2060010154815260200160095f8881526020019081526020015f20600201805461168b906152d0565b80601f01602080910402602001604051908101604052809291908181526020018280546116b7906152d0565b80156117025780601f106116d957610100808354040283529160200191611702565b820191905f5260205f20905b8154815290600101906020018083116116e557829003601f168201915b505050505081526020016001151581526020015f151581526020018681526020018581526020018481525060095f8781526020019081526020015f205f820151815f015f6101000a81548173ffffffffffffffffffffffffffffffffffffffff021916908373ffffffffffffffffffffffffffffffffffffffff1602179055506020820151816001015560408201518160020190816117a19190615511565b506060820151816003015f6101000a81548160ff02191690831515021790555060808201518160030160016101000a81548160ff02191690831515021790555060a0820151816004015560c08201518160050190816118009190615511565b5060e08201518160060190816118169190615511565b509050508173ffffffffffffffffffffffffffffffffffffffff16857fb424abc5eb4b182f4334d7f8fa7c796e8d0b113fa9b68319cb6faefffbf0f18c60405160405180910390a35050505050565b61187761187061355f565b838361394f565b5050565b600c8160405161188b9190615868565b90815260200160405180910390205f9054906101000a900460ff16156118e6576040517f08c379a00000000000000000000000000000000000000000000000000000000081526004016118dd906158ee565b60405180910390fd5b6118ef82611226565b73ffffffffffffffffffffffffffffffffffffffff163373ffffffffffffffffffffffffffffffffffffffff1614611925575f80fd5b5f61192f83611226565b90505f600a5f8581526020019081526020015f205490505f600c60095f8781526020019081526020015f2060020160405161196a919061598c565b90815260200160405180910390205f6101000a81548160ff0219169083151502179055506040518061010001604052808373ffffffffffffffffffffffffffffffffffffffff16815260200160095f8781526020019081526020015f206001015481526020018481526020016001151581526020015f1515815260200185815260200160095f8781526020019081526020015f206005018054611a0c906152d0565b80601f0160208091040260200160405190810160405280929190818152602001828054611a38906152d0565b8015611a835780601f10611a5a57610100808354040283529160200191611a83565b820191905f5260205f20905b815481529060010190602001808311611a6657829003601f168201915b5050505050815260200160095f8781526020019081526020015f206006018054611aac906152d0565b80601f0160208091040260200160405190810160405280929190818152602001828054611ad8906152d0565b8015611b235780601f10611afa57610100808354040283529160200191611b23565b820191905f5260205f20905b815481529060010190602001808311611b0657829003601f168201915b505050505081525060095f8681526020019081526020015f205f820151815f015f6101000a81548173ffffffffffffffffffffffffffffffffffffffff021916908373ffffffffffffffffffffffffffffffffffffffff160217905550602082015181600101556040820151816002019081611b9f9190615511565b506060820151816003015f6101000a81548160ff02191690831515021790555060808201518160030160016101000a81548160ff02191690831515021790555060a0820151816004015560c0820151816005019081611bfe9190615511565b5060e0820151816006019081611c149190615511565b509050506040518061010001604052808373ffffffffffffffffffffffffffffffffffffffff16815260200160095f8781526020019081526020015f206001015481526020018481526020016001151581526020015f1515815260200182815260200160095f8781526020019081526020015f206005018054611c96906152d0565b80601f0160208091040260200160405190810160405280929190818152602001828054611cc2906152d0565b8015611d0d5780601f10611ce457610100808354040283529160200191611d0d565b820191905f5260205f20905b815481529060010190602001808311611cf057829003601f168201915b5050505050815260200160095f8781526020019081526020015f206006018054611d36906152d0565b80601f0160208091040260200160405190810160405280929190818152602001828054611d62906152d0565b8015611dad5780601f10611d8457610100808354040283529160200191611dad565b820191905f5260205f20905b815481529060010190602001808311611d9057829003601f168201915b505050505081525060085f8381526020019081526020015f205f820151815f015f6101000a81548173ffffffffffffffffffffffffffffffffffffffff021916908373ffffffffffffffffffffffffffffffffffffffff160217905550602082015181600101556040820151816002019081611e299190615511565b506060820151816003015f6101000a81548160ff02191690831515021790555060808201518160030160016101000a81548160ff02191690831515021790555060a0820151816004015560c0820151816005019081611e889190615511565b5060e0820151816006019081611e9e9190615511565b509050506001600c84604051611eb49190615868565b90815260200160405180910390205f6101000a81548160ff021916908315150217905550611ee28484613ab8565b50505050565b611ef38484846109e5565b611eff84848484613b12565b50505050565b600d602052805f5260405f205f915054906101000a900460ff1681565b6009602052805f5260405f205f91509050805f015f9054906101000a900473ffffffffffffffffffffffffffffffffffffffff1690806001015490806002018054611f6c906152d0565b80601f0160208091040260200160405190810160405280929190818152602001828054611f98906152d0565b8015611fe35780601f10611fba57610100808354040283529160200191611fe3565b820191905f5260205f20905b815481529060010190602001808311611fc657829003601f168201915b505050505090806003015f9054906101000a900460ff16908060030160019054906101000a900460ff1690806004015490806005018054612023906152d0565b80601f016020809104026020016040519081016040528092919081815260200182805461204f906152d0565b801561209a5780601f106120715761010080835404028352916020019161209a565b820191905f5260205f20905b81548152906001019060200180831161207d57829003601f168201915b5050505050908060060180546120af906152d0565b80601f01602080910402602001604051908101604052809291908181526020018280546120db906152d0565b80156121265780601f106120fd57610100808354040283529160200191612126565b820191905f5260205f20905b81548152906001019060200180831161210957829003601f168201915b5050505050905088565b60605f600f5467ffffffffffffffff81111561214f5761214e61494c565b5b60405190808252806020026020018201604052801561218857816020015b61217561461e565b81526020019060019003908161216d5790505b5090505f5b600f5481101561242c5760095f8281526020019081526020015f20604051806101000160405290815f82015f9054906101000a900473ffffffffffffffffffffffffffffffffffffffff1673ffffffffffffffffffffffffffffffffffffffff1673ffffffffffffffffffffffffffffffffffffffff16815260200160018201548152602001600282018054612222906152d0565b80601f016020809104026020016040519081016040528092919081815260200182805461224e906152d0565b80156122995780601f1061227057610100808354040283529160200191612299565b820191905f5260205f20905b81548152906001019060200180831161227c57829003601f168201915b50505050508152602001600382015f9054906101000a900460ff161515151581526020016003820160019054906101000a900460ff16151515158152602001600482015481526020016005820180546122f1906152d0565b80601f016020809104026020016040519081016040528092919081815260200182805461231d906152d0565b80156123685780601f1061233f57610100808354040283529160200191612368565b820191905f5260205f20905b81548152906001019060200180831161234b57829003601f168201915b50505050508152602001600682018054612381906152d0565b80601f01602080910402602001604051908101604052809291908181526020018280546123ad906152d0565b80156123f85780601f106123cf576101008083540402835291602001916123f8565b820191905f5260205f20905b8154815290600101906020018083116123db57829003601f168201915b50505050508152505082828151811061241457612413615615565b5b6020026020010181905250808060010191505061218d565b508091505090565b606061243f82613cc4565b9050919050565b61244e613783565b5f73ffffffffffffffffffffffffffffffffffffffff1660085f8381526020019081526020015f205f015f9054906101000a900473ffffffffffffffffffffffffffffffffffffffff1673ffffffffffffffffffffffffffffffffffffffff16036124ee576040517f08c379a00000000000000000000000000000000000000000000000000000000081526004016124e5906159ec565b60405180910390fd5b5f151560085f8381526020019081526020015f206003015f9054906101000a900460ff16151514612554576040517f08c379a000000000000000000000000000000000000000000000000000000000815260040161254b90615a7a565b60405180910390fd5b5f60085f8381526020019081526020015f205f015f6101000a81548173ffffffffffffffffffffffffffffffffffffffff021916908373ffffffffffffffffffffffffffffffffffffffff1602179055505f60085f8381526020019081526020015f20600101819055505f60085f8381526020019081526020015f206004018190555060405180602001604052805f81525060085f8381526020019081526020015f2060050190816126069190615511565b5060405180602001604052805f81525060085f8381526020019081526020015f2060060190816126369190615511565b50807f76b9742e9bab74a6000e579647fb37a82fe46456bafe77ce59307d410322fbf760405161266590615b08565b60405180910390a250565b3373ffffffffffffffffffffffffffffffffffffffff1661269082611226565b73ffffffffffffffffffffffffffffffffffffffff16146126e6576040517f08c379a00000000000000000000000000000000000000000000000000000000081526004016126dd90615b96565b60405180910390fd5b600b5f8281526020019081526020015f205f9054906101000a900460ff16612743576040517f08c379a000000000000000000000000000000000000000000000000000000000815260040161273a9061571a565b60405180910390fd5b6001600d5f8381526020019081526020015f205f6101000a81548160ff021916908315150217905550600160085f8381526020019081526020015f2060030160016101000a81548160ff021916908315150217905550600160095f8381526020019081526020015f2060030160016101000a81548160ff02191690831515021790555050565b5f60055f8473ffffffffffffffffffffffffffffffffffffffff1673ffffffffffffffffffffffffffffffffffffffff1681526020019081526020015f205f8373ffffffffffffffffffffffffffffffffffffffff1673ffffffffffffffffffffffffffffffffffffffff1681526020019081526020015f205f9054906101000a900460ff16905092915050565b61285f613783565b5f73ffffffffffffffffffffffffffffffffffffffff1660085f8381526020019081526020015f205f015f9054906101000a900473ffffffffffffffffffffffffffffffffffffffff1673ffffffffffffffffffffffffffffffffffffffff16036128ff576040517f08c379a00000000000000000000000000000000000000000000000000000000081526004016128f6906159ec565b60405180910390fd5b5f600f5f8154809291906129129061532d565b919050559050600c60085f8481526020019081526020015f2060020160405161293b919061598c565b90815260200160405180910390205f9054906101000a900460ff1615612996576040517f08c379a000000000000000000000000000000000000000000000000000000000815260040161298d906158ee565b60405180910390fd5b6129d260085f8481526020019081526020015f205f015f9054906101000a900473ffffffffffffffffffffffffffffffffffffffff1682613dcf565b6001600c60085f8581526020019081526020015f206002016040516129f7919061598c565b90815260200160405180910390205f6101000a81548160ff02191690831515021790555060405180610100016040528060085f8581526020019081526020015f205f015f9054906101000a900473ffffffffffffffffffffffffffffffffffffffff1673ffffffffffffffffffffffffffffffffffffffff16815260200160085f8581526020019081526020015f2060010154815260200160085f8581526020019081526020015f206002018054612aae906152d0565b80601f0160208091040260200160405190810160405280929190818152602001828054612ada906152d0565b8015612b255780601f10612afc57610100808354040283529160200191612b25565b820191905f5260205f20905b815481529060010190602001808311612b0857829003601f168201915b505050505081526020016001151581526020015f1515815260200182815260200160085f8581526020019081526020015f206005018054612b65906152d0565b80601f0160208091040260200160405190810160405280929190818152602001828054612b91906152d0565b8015612bdc5780601f10612bb357610100808354040283529160200191612bdc565b820191905f5260205f20905b815481529060010190602001808311612bbf57829003601f168201915b5050505050815260200160085f8581526020019081526020015f206006018054612c05906152d0565b80601f0160208091040260200160405190810160405280929190818152602001828054612c31906152d0565b8015612c7c5780601f10612c5357610100808354040283529160200191612c7c565b820191905f5260205f20905b815481529060010190602001808311612c5f57829003601f168201915b505050505081525060095f8381526020019081526020015f205f820151815f015f6101000a81548173ffffffffffffffffffffffffffffffffffffffff021916908373ffffffffffffffffffffffffffffffffffffffff160217905550602082015181600101556040820151816002019081612cf89190615511565b506060820151816003015f6101000a81548160ff02191690831515021790555060808201518160030160016101000a81548160ff02191690831515021790555060a0820151816004015560c0820151816005019081612d579190615511565b5060e0820151816006019081612d6d9190615511565b5090505060405180610100016040528060085f8581526020019081526020015f205f015f9054906101000a900473ffffffffffffffffffffffffffffffffffffffff1673ffffffffffffffffffffffffffffffffffffffff16815260200160085f8581526020019081526020015f2060010154815260200160085f8581526020019081526020015f206002018054612e04906152d0565b80601f0160208091040260200160405190810160405280929190818152602001828054612e30906152d0565b8015612e7b5780601f10612e5257610100808354040283529160200191612e7b565b820191905f5260205f20905b815481529060010190602001808311612e5e57829003601f168201915b505050505081526020016001151581526020015f1515815260200183815260200160085f8581526020019081526020015f206005018054612ebb906152d0565b80601f0160208091040260200160405190810160405280929190818152602001828054612ee7906152d0565b8015612f325780601f10612f0957610100808354040283529160200191612f32565b820191905f5260205f20905b815481529060010190602001808311612f1557829003601f168201915b5050505050815260200160085f8581526020019081526020015f206006018054612f5b906152d0565b80601f0160208091040260200160405190810160405280929190818152602001828054612f87906152d0565b8015612fd25780601f10612fa957610100808354040283529160200191612fd2565b820191905f5260205f20905b815481529060010190602001808311612fb557829003601f168201915b505050505081525060085f8481526020019081526020015f205f820151815f015f6101000a81548173ffffffffffffffffffffffffffffffffffffffff021916908373ffffffffffffffffffffffffffffffffffffffff16021790555060208201518160010155604082015181600201908161304e9190615511565b506060820151816003015f6101000a81548160ff02191690831515021790555060808201518160030160016101000a81548160ff02191690831515021790555060a0820151816004015560c08201518160050190816130ad9190615511565b5060e08201518160060190816130c39190615511565b5090505061316b8160085f8581526020019081526020015f2060020180546130ea906152d0565b80601f0160208091040260200160405190810160405280929190818152602001828054613116906152d0565b80156131615780601f1061313857610100808354040283529160200191613161565b820191905f5260205f20905b81548152906001019060200180831161314457829003601f168201915b5050505050613ab8565b6001600b5f8381526020019081526020015f205f6101000a81548160ff02191690831515021790555081600a5f8381526020019081526020015f20819055505050565b6131b6613783565b5f73ffffffffffffffffffffffffffffffffffffffff168173ffffffffffffffffffffffffffffffffffffffff1603613226575f6040517f1e4fbdf700000000000000000000000000000000000000000000000000000000815260040161321d91906148c3565b60405180910390fd5b61322f8161380a565b50565b6008602052805f5260405f205f91509050805f015f9054906101000a900473ffffffffffffffffffffffffffffffffffffffff169080600101549080600201805461327c906152d0565b80601f01602080910402602001604051908101604052809291908181526020018280546132a8906152d0565b80156132f35780601f106132ca576101008083540402835291602001916132f3565b820191905f5260205f20905b8154815290600101906020018083116132d657829003601f168201915b505050505090806003015f9054906101000a900460ff16908060030160019054906101000a900460ff1690806004015490806005018054613333906152d0565b80601f016020809104026020016040519081016040528092919081815260200182805461335f906152d0565b80156133aa5780601f10613381576101008083540402835291602001916133aa565b820191905f5260205f20905b81548152906001019060200180831161338d57829003601f168201915b5050505050908060060180546133bf906152d0565b80601f01602080910402602001604051908101604052809291908181526020018280546133eb906152d0565b80156134365780601f1061340d57610100808354040283529160200191613436565b820191905f5260205f20905b81548152906001019060200180831161341957829003601f168201915b5050505050905088565b5f634906490660e01b7bffffffffffffffffffffffffffffffffffffffffffffffffffffffff1916827bffffffffffffffffffffffffffffffffffffffffffffffffffffffff19161480613499575061349882613ec2565b5b9050919050565b5f806134ab83613fa3565b90505f73ffffffffffffffffffffffffffffffffffffffff168173ffffffffffffffffffffffffffffffffffffffff160361351d57826040517f7e2732890000000000000000000000000000000000000000000000000000000081526004016135149190614b37565b60405180910390fd5b80915050919050565b5f60045f8381526020019081526020015f205f9054906101000a900473ffffffffffffffffffffffffffffffffffffffff169050919050565b5f33905090565b6135738383836001613fdc565b505050565b5f8061358384613fa3565b90505f73ffffffffffffffffffffffffffffffffffffffff168373ffffffffffffffffffffffffffffffffffffffff16146135c4576135c381848661419b565b5b5f73ffffffffffffffffffffffffffffffffffffffff168173ffffffffffffffffffffffffffffffffffffffff161461364f576136035f855f80613fdc565b600160035f8373ffffffffffffffffffffffffffffffffffffffff1673ffffffffffffffffffffffffffffffffffffffff1681526020019081526020015f205f82825403925050819055505b5f73ffffffffffffffffffffffffffffffffffffffff168573ffffffffffffffffffffffffffffffffffffffff16146136ce57600160035f8773ffffffffffffffffffffffffffffffffffffffff1673ffffffffffffffffffffffffffffffffffffffff1681526020019081526020015f205f82825401925050819055505b8460025f8681526020019081526020015f205f6101000a81548173ffffffffffffffffffffffffffffffffffffffff021916908373ffffffffffffffffffffffffffffffffffffffff160217905550838573ffffffffffffffffffffffffffffffffffffffff168273ffffffffffffffffffffffffffffffffffffffff167fddf252ad1be2c89b69c2b068fc378daa952ba7f163c4a11628f55a4df523b3ef60405160405180910390a4809150509392505050565b61378b61355f565b73ffffffffffffffffffffffffffffffffffffffff166137a9611300565b73ffffffffffffffffffffffffffffffffffffffff1614613808576137cc61355f565b6040517f118cdaa70000000000000000000000000000000000000000000000000000000081526004016137ff91906148c3565b60405180910390fd5b565b5f60065f9054906101000a900473ffffffffffffffffffffffffffffffffffffffff1690508160065f6101000a81548173ffffffffffffffffffffffffffffffffffffffff021916908373ffffffffffffffffffffffffffffffffffffffff1602179055508173ffffffffffffffffffffffffffffffffffffffff168173ffffffffffffffffffffffffffffffffffffffff167f8be0079c531659141344cd1fd0a4f28419497f9722a3daafe3b4186f6b6457e060405160405180910390a35050565b8160085f8581526020019081526020015f205f015f6101000a81548173ffffffffffffffffffffffffffffffffffffffff021916908373ffffffffffffffffffffffffffffffffffffffff1602179055508060085f8581526020019081526020015f2060030160016101000a81548160ff021916908315150217905550505050565b5f73ffffffffffffffffffffffffffffffffffffffff168273ffffffffffffffffffffffffffffffffffffffff16036139bf57816040517f5b08ba180000000000000000000000000000000000000000000000000000000081526004016139b691906148c3565b60405180910390fd5b8060055f8573ffffffffffffffffffffffffffffffffffffffff1673ffffffffffffffffffffffffffffffffffffffff1681526020019081526020015f205f8473ffffffffffffffffffffffffffffffffffffffff1673ffffffffffffffffffffffffffffffffffffffff1681526020019081526020015f205f6101000a81548160ff0219169083151502179055508173ffffffffffffffffffffffffffffffffffffffff168373ffffffffffffffffffffffffffffffffffffffff167f17307eab39ab6107e8899845ad3d59bd9653f200f220920489ca2b5937696c3183604051613aab919061477d565b60405180910390a3505050565b8060075f8481526020019081526020015f209081613ad69190615511565b507ff8e1a15aba9398e019f0b49df1a4fde98ee17ae345cb5f6b5e2c27f5033e8ce782604051613b069190614b37565b60405180910390a15050565b5f8373ffffffffffffffffffffffffffffffffffffffff163b1115613cbe578273ffffffffffffffffffffffffffffffffffffffff1663150b7a02613b5561355f565b8685856040518563ffffffff1660e01b8152600401613b779493929190615c06565b6020604051808303815f875af1925050508015613bb257506040513d601f19601f82011682018060405250810190613baf9190615c64565b60015b613c33573d805f8114613be0576040519150601f19603f3d011682016040523d82523d5f602084013e613be5565b606091505b505f815103613c2b57836040517f64a0ae92000000000000000000000000000000000000000000000000000000008152600401613c2291906148c3565b60405180910390fd5b805181602001fd5b63150b7a0260e01b7bffffffffffffffffffffffffffffffffffffffffffffffffffffffff1916817bffffffffffffffffffffffffffffffffffffffffffffffffffffffff191614613cbc57836040517f64a0ae92000000000000000000000000000000000000000000000000000000008152600401613cb391906148c3565b60405180910390fd5b505b50505050565b6060613ccf826134a0565b505f60075f8481526020019081526020015f208054613ced906152d0565b80601f0160208091040260200160405190810160405280929190818152602001828054613d19906152d0565b8015613d645780601f10613d3b57610100808354040283529160200191613d64565b820191905f5260205f20905b815481529060010190602001808311613d4757829003601f168201915b505050505090505f613d7461425e565b90505f815103613d88578192505050613dca565b5f82511115613dbc578082604051602001613da4929190615c8f565b60405160208183030381529060405292505050613dca565b613dc584614274565b925050505b919050565b5f73ffffffffffffffffffffffffffffffffffffffff168273ffffffffffffffffffffffffffffffffffffffff1603613e3f575f6040517f64a0ae92000000000000000000000000000000000000000000000000000000008152600401613e3691906148c3565b60405180910390fd5b5f613e4b83835f613578565b90505f73ffffffffffffffffffffffffffffffffffffffff168173ffffffffffffffffffffffffffffffffffffffff1614613ebd575f6040517f73c6ac6e000000000000000000000000000000000000000000000000000000008152600401613eb491906148c3565b60405180910390fd5b505050565b5f7f80ac58cd000000000000000000000000000000000000000000000000000000007bffffffffffffffffffffffffffffffffffffffffffffffffffffffff1916827bffffffffffffffffffffffffffffffffffffffffffffffffffffffff19161480613f8c57507f5b5e139f000000000000000000000000000000000000000000000000000000007bffffffffffffffffffffffffffffffffffffffffffffffffffffffff1916827bffffffffffffffffffffffffffffffffffffffffffffffffffffffff1916145b80613f9c5750613f9b826142da565b5b9050919050565b5f60025f8381526020019081526020015f205f9054906101000a900473ffffffffffffffffffffffffffffffffffffffff169050919050565b808061401457505f73ffffffffffffffffffffffffffffffffffffffff168273ffffffffffffffffffffffffffffffffffffffff1614155b15614146575f614023846134a0565b90505f73ffffffffffffffffffffffffffffffffffffffff168373ffffffffffffffffffffffffffffffffffffffff161415801561408d57508273ffffffffffffffffffffffffffffffffffffffff168173ffffffffffffffffffffffffffffffffffffffff1614155b80156140a0575061409e81846127c9565b155b156140e257826040517fa9fbf51f0000000000000000000000000000000000000000000000000000000081526004016140d991906148c3565b60405180910390fd5b811561414457838573ffffffffffffffffffffffffffffffffffffffff168273ffffffffffffffffffffffffffffffffffffffff167f8c5be1e5ebec7d5bd14f71427d1e84f3dd0314c0f7b2291e5b200ac8c7c3b92560405160405180910390a45b505b8360045f8581526020019081526020015f205f6101000a81548173ffffffffffffffffffffffffffffffffffffffff021916908373ffffffffffffffffffffffffffffffffffffffff16021790555050505050565b6141a6838383614343565b614259575f73ffffffffffffffffffffffffffffffffffffffff168373ffffffffffffffffffffffffffffffffffffffff160361421a57806040517f7e2732890000000000000000000000000000000000000000000000000000000081526004016142119190614b37565b60405180910390fd5b81816040517f177e802f000000000000000000000000000000000000000000000000000000008152600401614250929190615cb2565b60405180910390fd5b505050565b606060405180602001604052805f815250905090565b606061427f826134a0565b505f61428961425e565b90505f8151116142a75760405180602001604052805f8152506142d2565b806142b184614403565b6040516020016142c2929190615c8f565b6040516020818303038152906040525b915050919050565b5f7f01ffc9a7000000000000000000000000000000000000000000000000000000007bffffffffffffffffffffffffffffffffffffffffffffffffffffffff1916827bffffffffffffffffffffffffffffffffffffffffffffffffffffffff1916149050919050565b5f8073ffffffffffffffffffffffffffffffffffffffff168373ffffffffffffffffffffffffffffffffffffffff16141580156143fa57508273ffffffffffffffffffffffffffffffffffffffff168473ffffffffffffffffffffffffffffffffffffffff1614806143bb57506143ba84846127c9565b5b806143f957508273ffffffffffffffffffffffffffffffffffffffff166143e183613526565b73ffffffffffffffffffffffffffffffffffffffff16145b5b90509392505050565b60605f6001614411846144cd565b0190505f8167ffffffffffffffff81111561442f5761442e61494c565b5b6040519080825280601f01601f1916602001820160405280156144615781602001600182028036833780820191505090505b5090505f82602001820190505b6001156144c2578080600190039150507f3031323334353637383961626364656600000000000000000000000000000000600a86061a8153600a85816144b7576144b6615cd9565b5b0494505f850361446e575b819350505050919050565b5f805f90507a184f03e93ff9f4daa797ed6e38ed64bf6a1f0100000000000000008310614529577a184f03e93ff9f4daa797ed6e38ed64bf6a1f010000000000000000838161451f5761451e615cd9565b5b0492506040810190505b6d04ee2d6d415b85acef81000000008310614566576d04ee2d6d415b85acef8100000000838161455c5761455b615cd9565b5b0492506020810190505b662386f26fc10000831061459557662386f26fc10000838161458b5761458a615cd9565b5b0492506010810190505b6305f5e10083106145be576305f5e10083816145b4576145b3615cd9565b5b0492506008810190505b61271083106145e35761271083816145d9576145d8615cd9565b5b0492506004810190505b6064831061460657606483816145fc576145fb615cd9565b5b0492506002810190505b600a8310614615576001810190505b80915050919050565b6040518061010001604052805f73ffffffffffffffffffffffffffffffffffffffff1681526020015f8152602001606081526020015f151581526020015f151581526020015f815260200160608152602001606081525090565b6040518061010001604052805f73ffffffffffffffffffffffffffffffffffffffff1681526020015f8152602001606081526020015f151581526020015f151581526020015f815260200160608152602001606081525090565b5f604051905090565b5f80fd5b5f80fd5b5f7fffffffff0000000000000000000000000000000000000000000000000000000082169050919050565b614717816146e3565b8114614721575f80fd5b50565b5f813590506147328161470e565b92915050565b5f6020828403121561474d5761474c6146db565b5b5f61475a84828501614724565b91505092915050565b5f8115159050919050565b61477781614763565b82525050565b5f6020820190506147905f83018461476e565b92915050565b5f81519050919050565b5f82825260208201905092915050565b8281835e5f83830152505050565b5f601f19601f8301169050919050565b5f6147d882614796565b6147e281856147a0565b93506147f28185602086016147b0565b6147fb816147be565b840191505092915050565b5f6020820190508181035f83015261481e81846147ce565b905092915050565b5f819050919050565b61483881614826565b8114614842575f80fd5b50565b5f813590506148538161482f565b92915050565b5f6020828403121561486e5761486d6146db565b5b5f61487b84828501614845565b91505092915050565b5f73ffffffffffffffffffffffffffffffffffffffff82169050919050565b5f6148ad82614884565b9050919050565b6148bd816148a3565b82525050565b5f6020820190506148d65f8301846148b4565b92915050565b6148e5816148a3565b81146148ef575f80fd5b50565b5f81359050614900816148dc565b92915050565b5f806040838503121561491c5761491b6146db565b5b5f614929858286016148f2565b925050602061493a85828601614845565b9150509250929050565b5f80fd5b5f80fd5b7f4e487b71000000000000000000000000000000000000000000000000000000005f52604160045260245ffd5b614982826147be565b810181811067ffffffffffffffff821117156149a1576149a061494c565b5b80604052505050565b5f6149b36146d2565b90506149bf8282614979565b919050565b5f67ffffffffffffffff8211156149de576149dd61494c565b5b6149e7826147be565b9050602081019050919050565b828183375f83830152505050565b5f614a14614a0f846149c4565b6149aa565b905082815260208101848484011115614a3057614a2f614948565b5b614a3b8482856149f4565b509392505050565b5f82601f830112614a5757614a56614944565b5b8135614a67848260208601614a02565b91505092915050565b5f805f8060808587031215614a8857614a876146db565b5b5f85013567ffffffffffffffff811115614aa557614aa46146df565b5b614ab187828801614a43565b9450506020614ac287828801614845565b935050604085013567ffffffffffffffff811115614ae357614ae26146df565b5b614aef87828801614a43565b925050606085013567ffffffffffffffff811115614b1057614b0f6146df565b5b614b1c87828801614a43565b91505092959194509250565b614b3181614826565b82525050565b5f602082019050614b4a5f830184614b28565b92915050565b5f805f60608486031215614b6757614b666146db565b5b5f614b74868287016148f2565b9350506020614b85868287016148f2565b9250506040614b9686828701614845565b9150509250925092565b5f60208284031215614bb557614bb46146db565b5b5f614bc2848285016148f2565b91505092915050565b5f81519050919050565b5f82825260208201905092915050565b5f819050602082019050919050565b614bfd816148a3565b82525050565b614c0c81614826565b82525050565b5f82825260208201905092915050565b5f614c2c82614796565b614c368185614c12565b9350614c468185602086016147b0565b614c4f816147be565b840191505092915050565b614c6381614763565b82525050565b5f61010083015f830151614c7f5f860182614bf4565b506020830151614c926020860182614c03565b5060408301518482036040860152614caa8282614c22565b9150506060830151614cbf6060860182614c5a565b506080830151614cd26080860182614c5a565b5060a0830151614ce560a0860182614c03565b5060c083015184820360c0860152614cfd8282614c22565b91505060e083015184820360e0860152614d178282614c22565b9150508091505092915050565b5f614d2f8383614c69565b905092915050565b5f602082019050919050565b5f614d4d82614bcb565b614d578185614bd5565b935083602082028501614d6985614be5565b805f5b85811015614da45784840389528151614d858582614d24565b9450614d9083614d37565b925060208a01995050600181019050614d6c565b50829750879550505050505092915050565b5f6020820190508181035f830152614dce8184614d43565b905092915050565b5f81519050919050565b5f82825260208201905092915050565b5f819050602082019050919050565b5f61010083015f830151614e155f860182614bf4565b506020830151614e286020860182614c03565b5060408301518482036040860152614e408282614c22565b9150506060830151614e556060860182614c5a565b506080830151614e686080860182614c5a565b5060a0830151614e7b60a0860182614c03565b5060c083015184820360c0860152614e938282614c22565b91505060e083015184820360e0860152614ead8282614c22565b9150508091505092915050565b5f614ec58383614dff565b905092915050565b5f602082019050919050565b5f614ee382614dd6565b614eed8185614de0565b935083602082028501614eff85614df0565b805f5b85811015614f3a5784840389528151614f1b8582614eba565b9450614f2683614ecd565b925060208a01995050600181019050614f02565b50829750879550505050505092915050565b5f6020820190508181035f830152614f648184614ed9565b905092915050565b5f805f60608486031215614f8357614f826146db565b5b5f614f9086828701614845565b935050602084013567ffffffffffffffff811115614fb157614fb06146df565b5b614fbd86828701614a43565b925050604084013567ffffffffffffffff811115614fde57614fdd6146df565b5b614fea86828701614a43565b9150509250925092565b614ffd81614763565b8114615007575f80fd5b50565b5f8135905061501881614ff4565b92915050565b5f8060408385031215615034576150336146db565b5b5f615041858286016148f2565b92505060206150528582860161500a565b9150509250929050565b5f8060408385031215615072576150716146db565b5b5f61507f85828601614845565b925050602083013567ffffffffffffffff8111156150a05761509f6146df565b5b6150ac85828601614a43565b9150509250929050565b5f67ffffffffffffffff8211156150d0576150cf61494c565b5b6150d9826147be565b9050602081019050919050565b5f6150f86150f3846150b6565b6149aa565b90508281526020810184848401111561511457615113614948565b5b61511f8482856149f4565b509392505050565b5f82601f83011261513b5761513a614944565b5b813561514b8482602086016150e6565b91505092915050565b5f805f806080858703121561516c5761516b6146db565b5b5f615179878288016148f2565b945050602061518a878288016148f2565b935050604061519b87828801614845565b925050606085013567ffffffffffffffff8111156151bc576151bb6146df565b5b6151c887828801615127565b91505092959194509250565b5f610100820190506151e85f83018b6148b4565b6151f5602083018a614b28565b818103604083015261520781896147ce565b9050615216606083018861476e565b615223608083018761476e565b61523060a0830186614b28565b81810360c083015261524281856147ce565b905081810360e083015261525681846147ce565b90509998505050505050505050565b5f806040838503121561527b5761527a6146db565b5b5f615288858286016148f2565b9250506020615299858286016148f2565b9150509250929050565b7f4e487b71000000000000000000000000000000000000000000000000000000005f52602260045260245ffd5b5f60028204905060018216806152e757607f821691505b6020821081036152fa576152f96152a3565b5b50919050565b7f4e487b71000000000000000000000000000000000000000000000000000000005f52601160045260245ffd5b5f61533782614826565b91507fffffffffffffffffffffffffffffffffffffffffffffffffffffffffffffffff820361536957615368615300565b5b600182019050919050565b5f819050815f5260205f209050919050565b5f6020601f8301049050919050565b5f82821b905092915050565b5f600883026153d07fffffffffffffffffffffffffffffffffffffffffffffffffffffffffffffffff82615395565b6153da8683615395565b95508019841693508086168417925050509392505050565b5f819050919050565b5f61541561541061540b84614826565b6153f2565b614826565b9050919050565b5f819050919050565b61542e836153fb565b61544261543a8261541c565b8484546153a1565b825550505050565b5f90565b61545661544a565b615461818484615425565b505050565b5b81811015615484576154795f8261544e565b600181019050615467565b5050565b601f8211156154c95761549a81615374565b6154a384615386565b810160208510156154b2578190505b6154c66154be85615386565b830182615466565b50505b505050565b5f82821c905092915050565b5f6154e95f19846008026154ce565b1980831691505092915050565b5f61550183836154da565b9150826002028217905092915050565b61551a82614796565b67ffffffffffffffff8111156155335761553261494c565b5b61553d82546152d0565b615548828285615488565b5f60209050601f831160018114615579575f8415615567578287015190505b61557185826154f6565b8655506155d8565b601f19841661558786615374565b5f5b828110156155ae57848901518255600182019150602085019450602081019050615589565b868310156155cb57848901516155c7601f8916826154da565b8355505b6001600288020188555050505b505050505050565b5f6060820190506155f35f8301866148b4565b6156006020830185614b28565b61560d60408301846148b4565b949350505050565b7f4e487b71000000000000000000000000000000000000000000000000000000005f52603260045260245ffd5b7f596f752063616e27742062757920796f7572206f776e2070726f7065727479005f82015250565b5f615676601f836147a0565b915061568182615642565b602082019050919050565b5f6020820190508181035f8301526156a38161566a565b9050919050565b7f50726f706572747920686173206e6f74206265656e20617070726f76656420795f8201527f6574000000000000000000000000000000000000000000000000000000000000602082015250565b5f6157046022836147a0565b915061570f826156aa565b604082019050919050565b5f6020820190508181035f830152615731816156f8565b9050919050565b7f4e4f5420464f522053414c4500000000000000000000000000000000000000005f82015250565b5f61576c600c836147a0565b915061577782615738565b602082019050919050565b5f6020820190508181035f83015261579981615760565b9050919050565b7f496e73756666696369656e742066756e647320746f20627579207468697320705f8201527f726f706572747900000000000000000000000000000000000000000000000000602082015250565b5f6157fa6027836147a0565b9150615805826157a0565b604082019050919050565b5f6020820190508181035f830152615827816157ee565b9050919050565b5f81905092915050565b5f61584282614796565b61584c818561582e565b935061585c8185602086016147b0565b80840191505092915050565b5f6158738284615838565b915081905092915050565b7f50726f7065727479207769746820746869732043494420616c726561647920655f8201527f7869737473000000000000000000000000000000000000000000000000000000602082015250565b5f6158d86025836147a0565b91506158e38261587e565b604082019050919050565b5f6020820190508181035f830152615905816158cc565b9050919050565b5f8154615918816152d0565b615922818661582e565b9450600182165f811461593c576001811461595157615983565b60ff1983168652811515820286019350615983565b61595a85615374565b5f5b8381101561597b5781548189015260018201915060208101905061595c565b838801955050505b50505092915050565b5f615997828461590c565b915081905092915050565b7f50726f706572747920646f6573206e6f742065786973740000000000000000005f82015250565b5f6159d66017836147a0565b91506159e1826159a2565b602082019050919050565b5f6020820190508181035f830152615a03816159ca565b9050919050565b7f5468652070726f70657274792068617320616c7265616479206265656e2076655f8201527f7269666965640000000000000000000000000000000000000000000000000000602082015250565b5f615a646026836147a0565b9150615a6f82615a0a565b604082019050919050565b5f6020820190508181035f830152615a9181615a58565b9050919050565b7f596f75722070726f706572747920686173206e6f742076616c696420696e666f5f8201527f726d6174696f6e00000000000000000000000000000000000000000000000000602082015250565b5f615af26027836147a0565b9150615afd82615a98565b604082019050919050565b5f6020820190508181035f830152615b1f81615ae6565b9050919050565b7f596f7520617265206e6f7420746865206f776e6572206f6620746869732070725f8201527f6f70657274790000000000000000000000000000000000000000000000000000602082015250565b5f615b806026836147a0565b9150615b8b82615b26565b604082019050919050565b5f6020820190508181035f830152615bad81615b74565b9050919050565b5f81519050919050565b5f82825260208201905092915050565b5f615bd882615bb4565b615be28185615bbe565b9350615bf28185602086016147b0565b615bfb816147be565b840191505092915050565b5f608082019050615c195f8301876148b4565b615c2660208301866148b4565b615c336040830185614b28565b8181036060830152615c458184615bce565b905095945050505050565b5f81519050615c5e8161470e565b92915050565b5f60208284031215615c7957615c786146db565b5b5f615c8684828501615c50565b91505092915050565b5f615c9a8285615838565b9150615ca68284615838565b91508190509392505050565b5f604082019050615cc55f8301856148b4565b615cd26020830184614b28565b9392505050565b7f4e487b71000000000000000000000000000000000000000000000000000000005f52601260045260245ffdfea264697066735822122043e210cb29d011fcd47715212d3b6bd9e2d45bbc0d58918be53657999aa8f93a64736f6c63430008190033",
  "immutableReferences": {},
  "source": "// SPDX-License-Identifier: MIT\r\npragma solidity ^0.8.19;\r\n\r\nimport \"@openzeppelin/contracts/token/ERC721/ERC721.sol\";\r\nimport \"@openzeppelin/contracts/access/Ownable.sol\";\r\nimport \"@openzeppelin/contracts/token/ERC721/extensions/ERC721URIStorage.sol\";\r\n\r\ncontract CryptoLands is ERC721, Ownable, ERC721URIStorage  {\r\n       constructor() ERC721(\"CryptoLands\", \"CYD\") Ownable(msg.sender) {}\r\n\r\n    // Modifier to check if the caller is the land inspector\r\n    // modifier onlyLandInspector() {\r\n    //     require(msg.sender == owner(), \"Caller is not the land inspector\");\r\n    //     _;\r\n    // }\r\n       function tokenURI(uint256 tokenId) public view override(ERC721, ERC721URIStorage)\r\n        returns (string memory)\r\n    {\r\n        return super.tokenURI(tokenId);\r\n    }\r\n\r\n    function supportsInterface(bytes4 interfaceId) public view  override(ERC721, ERC721URIStorage)\r\n        returns (bool)\r\n    {\r\n        return super.supportsInterface(interfaceId);\r\n    }\r\n// QmZGCZH9KRCSU2SzWbwoEQgqQPrFnH4zZEFvYfRYfdUeEu\r\n// QmQLTeuWfMMNw7muGfBqwccHfhj9hA8VjjsyixTQXzPkW5\r\n// QmSVga8yRaFAaFgep7JYGM2eXaVVtQGFGMQPQp2GcH8uHm\r\n// QmbX3iQEsqJDVymhUGjXhXv7VLvNC52D3wWDiwJ1nSTiEx\r\n// QmYtYXLD3UD5i4sPYeMe5fczdV7dKT9Zy2R2gFqQwvPUQB\r\n    struct Property {\r\n        address owner;\r\n        uint256 Price;\r\n        string detailsCID;\r\n        bool verified;\r\n        bool saleStatus;\r\n        uint256 tokenID;//this is the reg id\r\n        string ownerName;\r\n        string ownerCnic;\r\n    }\r\n\r\n    struct TokenizedProperty {\r\n        address owner;\r\n        uint256 Price;\r\n        string detailsCID;\r\n        bool verified;\r\n        bool saleStatus;\r\n        uint256 tokenID;\r\n        string ownerName;\r\n        string ownerCnic;\r\n    }\r\n\r\n    mapping(uint256 => Property) public properties;   //both registered and unregistered properties \r\n    mapping(uint256 => TokenizedProperty) public TokenizedProperties; //registered properties only \r\n    mapping (uint256 => uint256) public RegIDtoTokenID;\r\n    mapping(uint256 => bool) private _propertyApprovalStatus;\r\n    mapping(string => bool) private _usedCIDs;\r\n    mapping(uint256 => bool) public PropertyStatus_available;\r\n     uint256 private _RegID;\r\nuint256 private _nextTokenId;\r\n    event PropertyRegistered(uint256 indexed tokenId, address indexed owner);\r\n    event PropertyApproved(uint256 indexed tokenId);\r\n    event PropertyRejected(uint256 indexed tokenId,string  message);\r\n    event PropertySold(uint256 indexed tokenId, address indexed newOwner);\r\n\r\n    modifier propertyAvailable(uint256 tokenId) {\r\n        require(PropertyStatus_available[tokenId], \"Property is not available for sale\");\r\n        _;\r\n    }\r\n\r\n    function registerProperty(string memory propertyURI, uint256 _price, string memory _name, string memory _cnic) public returns (uint256) {\r\n       \r\n     \r\n        address propOwner = msg.sender;\r\n        bool _verified = false;\r\n        bool _saleStatus = false;\r\n        uint256 RegID = _RegID++;\r\n        properties[RegID] = Property(propOwner, _price, propertyURI, _verified, _saleStatus, RegID, _name, _cnic); \r\n        PropertyStatus_available[RegID] = true;\r\n        emit PropertyRegistered(RegID, propOwner);\r\n        return RegID;\r\n        \r\n    }\r\n    function sell(uint256 tokenId) public   {\r\n        require(ownerOf(tokenId) == msg.sender, \"You are not the owner of this property\");\r\n        require(_propertyApprovalStatus[tokenId], \"Property has not been approved yet\");\r\n        PropertyStatus_available[tokenId]=true;\r\n        \r\n          properties[tokenId].saleStatus=true;\r\n           TokenizedProperties[tokenId].saleStatus=true;\r\n    \r\n        \r\n    }\r\n\r\n    function _BuyProperty(uint256 tokenId,string memory _buyername,string memory _buyercnic) public  payable {\r\n      address buyer = msg.sender;\r\n    address payable seller = payable(ownerOf(tokenId));\r\n    // Ensure the buyer is not the owner of the property\r\n    require(ownerOf(tokenId) != buyer, \"You can't buy your own property\");\r\n    // Ensure the property has been approved for sale\r\n    require(_propertyApprovalStatus[tokenId]==true, \"Property has not been approved yet\");\r\n  require(PropertyStatus_available[tokenId]==true,\"NOT FOR SALE\");\r\n    require(TokenizedProperties[tokenId].saleStatus==true,\"NOT FOR SALE\");\r\n    // Ensure the buyer sent enough funds to purchase the property\r\n    require(msg.value >= properties[tokenId].Price, \"Insufficient funds to buy this property\");\r\n\r\n// approving buyer to sell the token id \r\n     _approve(buyer, tokenId, seller);\r\n//escrow mechanisim\r\n    // Transfer funds to the seller\r\n    // Transfer token from seller to buyer\r\n    seller.transfer(msg.value); //msg.value\r\n    safeTransferFrom(seller, buyer, tokenId);\r\n   //sold properties availibity setting to false\r\nupdatePropertyStatus(tokenId, buyer, false);\r\n    // Emit event for property sold\r\n\r\nTokenizedProperties[tokenId] = TokenizedProperty(buyer, TokenizedProperties[tokenId].Price, TokenizedProperties[tokenId].detailsCID, true, false, tokenId, _buyername, _buyercnic);\r\n        \r\n\r\n\r\n    emit PropertySold(tokenId, buyer);\r\n}\r\nfunction updatePropertyStatus(uint256 tokenId, address newOwner, bool newSaleStatus) private {\r\n        properties[tokenId].owner = newOwner;\r\n        properties[tokenId].saleStatus = newSaleStatus;\r\n    }\r\n  \r\n//land Inspector\r\n    function approveProperty(uint256 Reg_ID) public onlyOwner {\r\n     \r\n        require(properties[Reg_ID].owner != address(0), \"Property does not exist\");\r\n        uint256 tokenId = _nextTokenId++;\r\n      \r\n            require(!_usedCIDs[properties[Reg_ID].detailsCID], \"Property with this CID already exists\");\r\n        _mint(properties[Reg_ID].owner, tokenId);\r\n        // properties[Reg_ID].tokenID = tokenId;\r\n        // Cidstatus(properties[Reg_ID].detailsCID);\r\n    _usedCIDs[properties[Reg_ID].detailsCID] = true;\r\n        TokenizedProperties[tokenId] = TokenizedProperty(properties[Reg_ID].owner, properties[Reg_ID].Price, properties[Reg_ID].detailsCID, true, false, tokenId, properties[Reg_ID].ownerName, properties[Reg_ID].ownerCnic);\r\n       properties[Reg_ID] = Property( properties[Reg_ID].owner,  properties[Reg_ID].Price,  properties[Reg_ID].detailsCID , true, false, Reg_ID, properties[Reg_ID].ownerName, properties[Reg_ID].ownerCnic); \r\n        _setTokenURI(tokenId, properties[Reg_ID].detailsCID);\r\n         _propertyApprovalStatus[tokenId] = true;\r\n        RegIDtoTokenID[tokenId]=Reg_ID;\r\n\r\n        // emit PropertyApproved(tokenId);\r\n\r\n\r\n    }\r\n    // function Cidstatus(string memory PropertURI) private {\r\n    //      _usedCIDs[PropertURI] = true;\r\n    // }\r\n\r\n\r\nfunction RejectProperty(uint256 Reg_ID) public onlyOwner {\r\n    require(properties[Reg_ID].owner != address(0), \"Property does not exist\");\r\n    require(properties[Reg_ID].verified == false, \"The property has already been verified\");\r\n    \r\n    // Reset the values of the property\r\n    properties[Reg_ID].owner = address(0);\r\n    properties[Reg_ID].Price = 0;\r\n    // properties[Reg_ID].detailsCID = \"\";\r\n   \r\n    properties[Reg_ID].tokenID = 0;\r\n    properties[Reg_ID].ownerName = \"\";\r\n    properties[Reg_ID].ownerCnic = \"\";\r\n\r\n    // Emit event for property rejection\r\n    emit PropertyRejected(Reg_ID, \"Your property has not valid information\");\r\n}\r\n\r\n\r\n    function getAllProperties() public view returns (Property[] memory) {\r\n        Property[] memory allProperties = new Property[](_RegID);\r\n        for (uint256 i = 0; i < _RegID; i++) {\r\n            allProperties[i] = properties[i];\r\n        }\r\n        return allProperties;\r\n    }\r\n     function getTokenizedProperties() public view returns (TokenizedProperty[] memory) {\r\n        TokenizedProperty[] memory allProperties = new TokenizedProperty[](_nextTokenId);\r\n        for (uint256 i = 0; i < _nextTokenId; i++) {\r\n            allProperties[i] = TokenizedProperties[i];\r\n        }\r\n        return allProperties;\r\n    }\r\n\r\n\r\n    function updatePropertyDetails(uint256 tokenId, string memory UpdatedCid) public  {\r\n          require(!_usedCIDs[UpdatedCid], \"Property with this CID already exists\");\r\n        require(msg.sender==ownerOf(tokenId));\r\n        address propOwner = ownerOf(tokenId);\r\n        uint256 regId= RegIDtoTokenID[tokenId];\r\n        \r\n        _usedCIDs[TokenizedProperties[tokenId].detailsCID]=false;\r\n        TokenizedProperties[tokenId] = TokenizedProperty(propOwner, TokenizedProperties[tokenId].Price, UpdatedCid, true, false, tokenId, TokenizedProperties[tokenId].ownerName, TokenizedProperties[tokenId].ownerCnic);\r\n        properties[regId] = Property(propOwner, TokenizedProperties[tokenId].Price, UpdatedCid, true, false, regId, TokenizedProperties[tokenId].ownerName, TokenizedProperties[tokenId].ownerCnic);\r\n      _usedCIDs[UpdatedCid]=true;\r\n        _setTokenURI(tokenId, UpdatedCid);  \r\n    }\r\n\r\n    function OwnedProperties(address owner) public view returns (TokenizedProperty[] memory) {\r\n        uint256 count = 0;\r\n        for (uint256 i = 0; i < _RegID; i++) {\r\n            if (TokenizedProperties[i].owner == owner) {\r\n                count++;\r\n            }\r\n        }\r\n        TokenizedProperty[] memory ownedProperties = new TokenizedProperty[](count);\r\n        uint256 index = 0;\r\n        for (uint256 i = 0; i < _RegID; i++) {\r\n            if (TokenizedProperties[i].owner == owner) {\r\n                ownedProperties[index] = TokenizedProperties[i];\r\n                index++;\r\n            }\r\n        }\r\n        return ownedProperties;\r\n    }\r\n}\r\n",
  "sourcePath": "D:\\Land Registery System\\landsystem\\client\\contracts\\CryptoLands.sol",
  "compiler": {
    "name": "solc",
    "version": "0.8.25+commit.b61c2a91.Emscripten.clang"
  },
  "schemaVersion": "3.4.16",
  "updatedAt": "2024-05-08T00:45:04.127Z",
  "networkType": "ethereum",
  "devdoc": {
    "errors": {
      "ERC721IncorrectOwner(address,uint256,address)": [
        {
          "details": "Indicates an error related to the ownership over a particular token. Used in transfers.",
          "params": {
            "owner": "Address of the current owner of a token.",
            "sender": "Address whose tokens are being transferred.",
            "tokenId": "Identifier number of a token."
          }
        }
      ],
      "ERC721InsufficientApproval(address,uint256)": [
        {
          "details": "Indicates a failure with the `operator`s approval. Used in transfers.",
          "params": {
            "operator": "Address that may be allowed to operate on tokens without being their owner.",
            "tokenId": "Identifier number of a token."
          }
        }
      ],
      "ERC721InvalidApprover(address)": [
        {
          "details": "Indicates a failure with the `approver` of a token to be approved. Used in approvals.",
          "params": {
            "approver": "Address initiating an approval operation."
          }
        }
      ],
      "ERC721InvalidOperator(address)": [
        {
          "details": "Indicates a failure with the `operator` to be approved. Used in approvals.",
          "params": {
            "operator": "Address that may be allowed to operate on tokens without being their owner."
          }
        }
      ],
      "ERC721InvalidOwner(address)": [
        {
          "details": "Indicates that an address can't be an owner. For example, `address(0)` is a forbidden owner in EIP-20. Used in balance queries.",
          "params": {
            "owner": "Address of the current owner of a token."
          }
        }
      ],
      "ERC721InvalidReceiver(address)": [
        {
          "details": "Indicates a failure with the token `receiver`. Used in transfers.",
          "params": {
            "receiver": "Address to which tokens are being transferred."
          }
        }
      ],
      "ERC721InvalidSender(address)": [
        {
          "details": "Indicates a failure with the token `sender`. Used in transfers.",
          "params": {
            "sender": "Address whose tokens are being transferred."
          }
        }
      ],
      "ERC721NonexistentToken(uint256)": [
        {
          "details": "Indicates a `tokenId` whose `owner` is the zero address.",
          "params": {
            "tokenId": "Identifier number of a token."
          }
        }
      ],
      "OwnableInvalidOwner(address)": [
        {
          "details": "The owner is not a valid owner account. (eg. `address(0)`)"
        }
      ],
      "OwnableUnauthorizedAccount(address)": [
        {
          "details": "The caller account is not authorized to perform an operation."
        }
      ]
    },
    "events": {
      "Approval(address,address,uint256)": {
        "details": "Emitted when `owner` enables `approved` to manage the `tokenId` token."
      },
      "ApprovalForAll(address,address,bool)": {
        "details": "Emitted when `owner` enables or disables (`approved`) `operator` to manage all of its assets."
      },
      "BatchMetadataUpdate(uint256,uint256)": {
        "details": "This event emits when the metadata of a range of tokens is changed. So that the third-party platforms such as NFT market could timely update the images and related attributes of the NFTs."
      },
      "MetadataUpdate(uint256)": {
        "details": "This event emits when the metadata of a token is changed. So that the third-party platforms such as NFT market could timely update the images and related attributes of the NFT."
      },
      "Transfer(address,address,uint256)": {
        "details": "Emitted when `tokenId` token is transferred from `from` to `to`."
      }
    },
    "kind": "dev",
    "methods": {
      "approve(address,uint256)": {
        "details": "See {IERC721-approve}."
      },
      "balanceOf(address)": {
        "details": "See {IERC721-balanceOf}."
      },
      "getApproved(uint256)": {
        "details": "See {IERC721-getApproved}."
      },
      "isApprovedForAll(address,address)": {
        "details": "See {IERC721-isApprovedForAll}."
      },
      "name()": {
        "details": "See {IERC721Metadata-name}."
      },
      "owner()": {
        "details": "Returns the address of the current owner."
      },
      "ownerOf(uint256)": {
        "details": "See {IERC721-ownerOf}."
      },
      "renounceOwnership()": {
        "details": "Leaves the contract without owner. It will not be possible to call `onlyOwner` functions. Can only be called by the current owner. NOTE: Renouncing ownership will leave the contract without an owner, thereby disabling any functionality that is only available to the owner."
      },
      "safeTransferFrom(address,address,uint256)": {
        "details": "See {IERC721-safeTransferFrom}."
      },
      "safeTransferFrom(address,address,uint256,bytes)": {
        "details": "See {IERC721-safeTransferFrom}."
      },
      "setApprovalForAll(address,bool)": {
        "details": "See {IERC721-setApprovalForAll}."
      },
      "symbol()": {
        "details": "See {IERC721Metadata-symbol}."
      },
      "transferFrom(address,address,uint256)": {
        "details": "See {IERC721-transferFrom}."
      },
      "transferOwnership(address)": {
        "details": "Transfers ownership of the contract to a new account (`newOwner`). Can only be called by the current owner."
      }
    },
    "version": 1
  },
  "userdoc": {
    "kind": "user",
    "methods": {},
    "version": 1
  }
}